:100000000C9469000C9491000C9491000C94910054
:100010000C9491000C9491000C9491000C94231773
:100020000C9491000C9491000C9491000C94FD1789
:100030000C9491000C9491000C9491000C949100FC
:100040000C94D9160C9491000C94CB170C94A51712
:100050000C9491000C9491000C9491000C949100DC
:100060000C9491000C9491000A0B0C0D0E0F0001E2
:100070000203040500000000230026002900000000
:100080000008000201000003040700000000000057
:1000900000000200000000250028002B00000000E6
:1000A00000240027002A00040404040404040402B9
:1000B0000202020202030303030303010204081005
:1000C00020408001020408102001020408102000D2
:1000D000B91811241FBECFEFD8E0DEBFCDBF11E0AD
:1000E000A0E0B1E0E0E6F0E402C005900D92A63D8C
:1000F000B107D9F722E0A6EDB1E001C01D92A33E01
:10010000B207E1F710E0C9E6D0E004C02197FE0194
:100110000E94511DC836D107C9F70E9469190C9475
:100120002E200C94000090E0FC01E554FF4F249138
:1001300089559F4FFC018491882399F090E0880FA6
:10014000991FFC01E356FF4FA591B491FC01ED56B8
:10015000FF4F859194918FB7F894EC91E22BEC933B
:100160008FBF08952F923F924F925F926F927F922E
:100170008F929F92AF92BF92CF92DF92EF92FF92B7
:100180000F931F93CF93DF9300D000D0CDB7DEB78E
:100190001C014B015A0139012701960122703327B6
:1001A0003A83298333E0C322DD245C834B83CD284B
:1001B00051F46801C41AD50A8B819C818C0D9D1D58
:1001C00084159505B0F07301E00EF11E4B815C8142
:1001D000E614F704F1F06A01FFEFCF1ADF0A2FEF00
:1001E0003FEFB401F70182917F01F1010995A6016A
:1001F000EFCFEB80FC808FEFE81AF80A2FEF3FEF8C
:100200004B815C81B40180E2F1010995FC82EB82B3
:10021000D3CF8B819C81800F911F29813A81232B21
:10022000A1F09C012A193B092415350570F4FC0145
:100230003196FA83E9832FEF3FEFAC01B40180E2FE
:10024000F101099589819A81ECCF0F900F900F9061
:100250000F90DF91CF911F910F91FF90EF90DF9062
:10026000CF90BF90AF909F908F907F906F905F9056
:100270004F903F902F9008952F923F924F925F9210
:100280006F927F928F929F92AF92BF92CF92DF92A6
:10029000EF92FF920F931F93CF93DF93CDB7DEB70B
:1002A000AF970FB6F894DEBF0FBECDBF9AA789A750
:1002B0007CA76BA75EA74DA7CAA2DBA2ECA25F2C0E
:1002C000402E1DA3322E232EA8A689A22A968EACDC
:1002D0009FAC2A9796014E2D5F2D602F712F832D95
:1002E000922DA0E00E94451D09F04CC092FC42C036
:1002F00080E38983E89484F866246394712C81FCFC
:1003000092C0C4018170992728962EAD3FAD2897E1
:10031000232BA9F0009709F486C038A5311105C038
:1003200094012C703327232B51F028964EAD5FADEE
:1003300028974150510928965FAF4EAF2897E1E0CA
:10034000F0E0EC0FFD1FE60DF71D830120E30097A1
:1003500009F46AC028964EAD5FAD289704171507BB
:1003600008F062C00032110509F45EC00F5F1F4F34
:100370002193EDCF29A1203111F4E89484F8712C58
:10038000612CBDCF81E485FE81E6AE014F5F5F4FFA
:100390005FA34EA3712C612C8A508FA7A9A0B12C0A
:1003A000C12CD12CE12CF12C00E010E02AA13BA1C2
:1003B0004CA1552D642D7DA1832D922D0E94A41C4E
:1003C0002A3074F5205D8FEF681A780AEEA1FFA13C
:1003D0002193FFA3EEA3A9A0B12CC12CD12CE12C19
:1003E000F12C00E010E02AA13BA14CA1552D642D79
:1003F0007DA1832D922D0E94A61C2AA33BA34CA372
:10040000552E462E7DA3382E292EA0E00E94451D94
:1004100009F475CFF0E26F16710409F0BFCF6FCF0A
:100420005FA5250FD0CF8301E1E0F0E0EC0FFD1FC9
:10043000E00FF11F80E326962EAD3FAD2697021701
:10044000130738F40032110520F40F5F1F4F81931A
:10045000F2CF39A1383029F46016710610F4E8940F
:1004600084F8C40180719071892B09F447C092FC13
:1004700025C00115110511F126964EAD5FAD2697E9
:100480004017510739F028968EAD9FAD2897081771
:100490001907A1F46016710608F099C0C801019708
:1004A00059F0E9A1E03109F06EC002501109681657
:1004B000790640F08C0106C010E000E0F9A1F031AF
:1004C00009F062C085FC54C00032110540F5E1E03E
:1004D000F0E0EC0FFD1FE00FF11F88E780830F5F56
:1004E0001F4F00321105D8F4E1E0F0E0EC0FFD1FE2
:1004F000E00FF11F80E380830F5F1F4F0032110573
:1005000070F438A5332309F44EC0E1E0F0E0EC0FBD
:10051000FD1FE00FF11F8DE280830F5F1F4F64010D
:100520002896EEACFFAC28979E012F5F3F4F4DA55C
:100530005EA56BA57CA589A59AA50E94B200AF9681
:100540000FB6F894DEBF0FBECDBFDF91CF911F91E4
:100550000F91FF90EF90DF90CF90BF90AF909F9062
:100560008F907F906F905F904F903F902F90089565
:1005700000321105A0F6E1E0F0E0EC0FFD1FE00F06
:10058000F11F88E5ABCF8C0129A1223009F0A9CF5A
:100590000032110520F6E1E0F0E0EC0FFD1FE00F66
:1005A000F11F82E69BCF82FE08C0E1E0F0E0EC0F95
:1005B000FD1FE00FF11F8BE2AFCF83FEB0CFE1E074
:1005C000F0E0EC0FFD1FE00FF11F80E2A5CF49A185
:1005D0004031D1F677CF2F923F924F925F926F9238
:1005E0007F928F929F92AF92BF92CF92DF92EF92C3
:1005F000FF920F931F93CF93DF93CDB7DEB76E9724
:100600000FB6F894DEBF0FBECDBF09871A872B87C0
:100610003C874D875E876F87788B23964EAC5FACA7
:1006200023978C8A9D8AAE8ABF8AC88ED98EEA8E1D
:10063000FB8E8C8F29AD3AAD232B09F49EC00A8B1B
:100640001B8B6B847C844A011B01EDADFEADF3FF77
:100650003EC0E4FD3CC0202F312FA301B401C101F5
:10066000A0E00E94451D09F00CF49AC02AE0A22ED9
:10067000B12CC12CD12CE12CF12C00E010E02A8906
:100680003B89A301B401C1010E94731CA0E00E9438
:10069000451D99F429AD3AAD215031093AAF29AF42
:1006A0002A893B89A301B401C1010E94751C2A8BD0
:1006B0003B8B3A014B011C01D9CF2A893B89A3010D
:1006C000B401C101A0E00E94451D09F469C0219652
:1006D0008EAD9FAD2197840D951D9E8F8D8F90E2DD
:1006E0004916510408F096C0E9ADFAAD3197FAAF5A
:1006F000E9AFFFEF4F1A5F0A9AE0A92EB12CC12C87
:10070000D12CE12CF12C00E010E02A893B89A301D7
:10071000B401C1010E94731C205DED8DFE8D2193FB
:10072000FE8FED8F2A893B89A301B401C1010E948C
:10073000751C2A8B3B8B3A014B011C01A0E00E94E7
:10074000451D69F62196EEADFFAD2197E40DF51D2F
:1007500080E320E24216510409F45CC03FEF431AE3
:10076000530A29AD3AAD2115310509F4DAC0819358
:10077000215031093AAF29AFECCF3DAD34FF10C065
:1007800080E24816510408F045C02196EEADFFAD59
:100790002197E40DF51D8EE28083F20131962F0141
:1007A00021966EAC7FAC2197640C751CF0E24F165D
:1007B000510480F52FEF421A520A8AE0A82EB12C7C
:1007C000C12CD12CE12CF12C00E010E02C893D89CA
:1007D0004E895F89688D798D8A8D9B8D0E94731CEF
:1007E000205DF30121933F012C893D894E895F896A
:1007F000688D798D8A8D9B8D0E94751C2C8B3D8B0D
:100800004E8B5F8B688F798F8A8F9B8FA0E00E94C1
:10081000451D61F6FDADF1FD29C0F0FF27C02BADF0
:100820003CAD232B19F13C8D311106C08DAD9EAD31
:100830008C709927892B29F08BAD9CAD01979CAFCB
:100840008BAF2196EEADFFAD2197E40DF51D80E352
:100850002BAD3CAD4216530648F430E2431651042A
:10086000C0F49FEF491A590A8193F2CFE0E24E1685
:10087000510478F4FC8DFF23B1F12196EEADFFAD6C
:100880002197E40DF51D8DE2808392012F5F3F4F8C
:100890002901CDACDEACEBACFCAC820121962EADD7
:1008A0003FAD21974FA958AD6DA97EA98BA99CA9F1
:1008B0000E94B2006E960FB6F894DEBF0FBECDBF99
:1008C000DF91CF911F910F91FF90EF90DF90CF902C
:1008D000BF90AF909F908F907F906F905F904F9060
:1008E0003F902F9008953DAD32FF0CC02196EEADA4
:1008F000FFAD2197E40DF51D8BE28083C2010196C7
:100900002C01C7CF9DAD93FFC4CF2196EEADFFADB7
:100910002197E40DF51D80E28083F20131962F01CD
:10092000B8CF8EE280833CCF8F929F92AF92BF92DE
:10093000CF92DF92EF92FF920F931F93CF938C0190
:1009400080912A01893079F08F3F09F46AC0CF91F4
:100950001F910F91FF90EF90DF90CF90BF90AF90DD
:100960009F908F900895E2E9F0E0C491C7FDEFCF2A
:1009700089E00E9493004801B12CA12CCC23E9F01E
:10098000980150E040E0C23009F0B9C048015A0176
:1009900068E478EE81E090E00E94CD1B69017A0165
:1009A00081E0C81AD108E108F1088FEFC816D10418
:1009B000E104F10409F00CF4DBC064E274EF80E0C0
:1009C00090E0A50194010E94CD1B69017A0181E0AC
:1009D000C81AD108E108F108CC2309F4CBC0C23011
:1009E00009F01AC18FEFC816D104E104F10409F02F
:1009F0000CF41AC162E17AE780E090E0A50194016D
:100A00000E94CD1B69017A0181E0C81AD108E10872
:100A1000F10885E09091B100987F892B8093B10017
:100A2000C5C089E080932A01E2E9F0E0C491CF3F9C
:100A300009F48DCFC13019F148F0C23009F43DC03E
:100A4000C7FD85CF89E00E9493009ACF14BC15BCE6
:100A500084B5826084BD85B5816085BDE0EBF0E042
:100A6000E491F0E0EE0FFF1FED56FF4F859194915A
:100A7000E4ECF0E0E491E093ED01C0E079CF109276
:100A800080001092810080918100886080938100B5
:100A900080918100816080938100E0EBF0E0E4913F
:100AA000F0E0EE0FFF1FED56FF4F85919491E4ECBF
:100AB000F0E0E491E093EC015BCF1092B000109273
:100AC000B1008091B00082608093B0008091B1004D
:100AD00081608093B100E0EBF0E0E491F0E0EE0F94
:100AE000FF1FED56FF4F859194919093EB018093FA
:100AF000EA01E4ECF0E0E491E093E90139CF60E051
:100B000079E08DE390E00E94CD1B69017A0181E0DC
:100B1000C81AD108E108F108C13009F047C0809136
:100B20008100887F81608093810040C0D0928900DD
:100B3000C09288002093F2013093F3014093F401B6
:100B40005093F50180916F00826080936F00FFCE1B
:100B5000C092B3002093EE013093EF014093F00177
:100B60005093F10180917000826080937000EFCE0D
:100B700083E050CF93E08FEFC816D104E104F10475
:100B800089F084F069E07DE380E090E0A5019401C4
:100B90000E94CD1B69017A0181E0C81AD108E108E1
:100BA000F10894E085B5887F892B85BD9801220FD7
:100BB000331FA4EFB1E00E94581C28EE33E040E060
:100BC00050E00E94361CC13009F4B0CFC23009F4A5
:100BD000BFCFC111BCCEC7BC2093F6013093F70143
:100BE0004093F8015093F90180916E0082608093E8
:100BF0006E00ADCE69E07DE380E090E0A501940158
:100C00000E94CD1B69017A0181E0C81AD108E10870
:100C1000F108C1E086E0FECE8FEFC816D104E104F2
:100C2000F10409F03CF7C1E084E0F4CE833081F0B8
:100C300028F4813099F08230A9F008958730A9F026
:100C40008830C9F08430B1F4809180008F7D03C07A
:100C5000809180008F7780938000089584B58F778E
:100C600084BD089584B58F7DFBCF8091B0008F77D0
:100C70008093B00008958091B0008F7DF9CFCF931D
:100C8000DF93282F30E0F901E258FF4F8491F901FA
:100C9000E554FF4FD491F901E955FF4FC491CC239E
:100CA000A1F081110E941606EC2FF0E0EE0FFF1F5D
:100CB000EC58FF4FA591B491EC91ED2381E090E0C9
:100CC00009F480E0DF91CF91089580E090E0FACFC1
:100CD0001F93CF93DF93282F30E0F901E258FF4FA5
:100CE0008491F901E554FF4FD491F901E955FF4F83
:100CF000C491CC23A9F0162F81110E941606EC2F67
:100D0000F0E0EE0FFF1FED56FF4FA591B4918FB7A6
:100D1000F894EC91111108C0D095DE23DC938FBFBD
:100D2000DF91CF911F910895DE2BF8CF682F80912E
:100D3000C7020E9468068091DF029091E002833032
:100D4000910528F0880F991F04970197F1F70895EE
:100D500081E00C9496063FB7F8948091E50190915C
:100D6000E601A091E701B091E80126B5A89B05C076
:100D70002F3F19F00196A11DB11D3FBFBA2FA92F1A
:100D8000982F8827BC01CD01620F711D811D911D17
:100D900043E0660F771F881F991F4A95D1F7089582
:100DA0008F929F92AF92BF92CF92DF92EF92FF927B
:100DB0004B015C010E94AB066B017C010E94AB06FB
:100DC0006C197D098E099F09683E73408105910564
:100DD000A8F321E0821A9108A108B10888EEC80E94
:100DE00083E0D81EE11CF11C81149104A104B1041C
:100DF00029F7FF90EF90DF90CF90BF90AF909F903A
:100E00008F900895AF92BF92CF92DF92EF92FF92B0
:100E10000F931F93CF93DF936C017B018B01040F22
:100E2000151FEB015E01AE18BF08C017D10759F0BE
:100E30006991D601ED91FC910190F081E02DC60100
:100E40000995892B79F7C501DF91CF911F910F91FA
:100E5000FF90EF90DF90CF90BF90AF900895FC018E
:100E6000538D448D252F30E0842F90E0821B930B0F
:100E7000541710F0CF96089501970895FC01918DB5
:100E8000828D981761F0A28DAE0FBF2FB11D5D96B8
:100E90008C91928D9F5F9F73928F90E008958FEF5A
:100EA0009FEF0895FC01918D828D981731F0828D0E
:100EB000E80FF11D858D90E008958FEF9FEF089565
:100EC000FC01918D228D892F90E0805C9F4F821BC9
:100ED00091098F73992708958AEF91E00E94600726
:100EE00021E0892B09F420E0822F089580E090E032
:100EF000892B29F00E946C0781110C940000089541
:100F0000FC01A48DA80FB92FB11DA35ABF4F2C917E
:100F1000848D90E001968F739927848FA689B78975
:100F20002C93A089B1898C91837080648C93938D6C
:100F3000848D981306C00288F389E02D80818F7D0F
:100F400080830895EF92FF920F931F93CF93DF93C7
:100F5000EC0181E0888F9B8D8C8D98131AC0E889F5
:100F6000F989808185FF15C09FB7F894EE89FF89C4
:100F70006083E889F98980818370806480839FBF62
:100F800081E090E0DF91CF911F910F91FF90EF9062
:100F90000895F62E0B8D10E00F5F1F4F0F73112772
:100FA000E02E8C8D8E110CC00FB607FCFACFE889AD
:100FB000F989808185FFF5CFCE010E948007F1CFAE
:100FC000EB8DEC0FFD2FF11DE35AFF4FF0829FB721
:100FD000F8940B8FEA89FB8980818062CFCFCF9311
:100FE000DF93EC01888D8823B9F0AA89BB89E88951
:100FF000F9898C9185FD03C0808186FD0DC00FB6F7
:1010000007FCF7CF8C9185FFF2CF808185FFEDCF74
:10101000CE010E948007E9CFDF91CF910895CF9252
:10102000DF92EF92FF92CF93DF93EC01603282E088
:101030007807CCF5653B710514F064EB70E08981AD
:1010400028E830E0281B310987FD3395220F331F34
:10105000220F331F6901330FEE08FF088A8128E54C
:1010600032E0281B310987FD3395220F331F220FF1
:10107000331F032E000C440B550B2C193D094E0950
:101080005F09DB0177FF02C0B0E0A0E00E94F71B20
:1010900024EB30E040E050E00E94CD1BC20ED31E96
:1010A000E41EF51EB601E881EC3060F5298188E880
:1010B00090E0821B910927FD9395880F991F880F57
:1010C000991F681779077CF02A8188E592E0821BD6
:1010D000910927FD9395880F991F880F991F68170D
:1010E00079070CF4CB014FB7F8942E2F30E002971C
:1010F000F901EE0FFF1FE20FF31FE956FD4F928338
:1011000081834FBFDF91CF91FF90EF90DF90CF9021
:1011100008951F93CF93DF93EC01162F88818C30B5
:1011200008F04DC0862F0E9493008881282F30E060
:10113000F901EE0FFF1FE20FF31FE956FD4F1F737A
:101140006081607C612B608319821A822CE0622F9F
:101150000E94671C829FB001112430E020E0AB01A7
:10116000420F531FFA01EE0FFF1FE40FF51FE95660
:10117000FD4F908196FD16C02F5F3F4F2C303105FB
:1011800071F781110FC01092800082E0809381007E
:101190001092850010928400B19A80916F00826055
:1011A00080936F00E8818E2F90E0FC01EE0FFF1F0F
:1011B000E80FF91FE956FD4F8081806480838881A4
:1011C000DF91CF911F91089508952F923F924F92F2
:1011D0005F926F927F928F929F92AF92BF92CF92C7
:1011E000DF92EF92FF920F931F93CF93DF93CDB7D0
:1011F000DEB760970FB6F894DEBF0FBECDBF988BF9
:101200008F876A017B013E872D87DB01CA01882712
:10121000B7FD83959927AA27BB27282F2170EF8533
:10122000F889208B892B21F0F7FAF094F7F8F094E5
:10123000C701B6010E943B1E29833A834B835C831E
:101240006D837E838F839887AF85B8892C931196A1
:101250003C93119712964C93129713965C931397A5
:1012600014966C93149715967C9315978F81169608
:101270008C931697988517969C93ED85FE85EE0FB7
:10128000FF1FEE0FFF1FE55DFE4F80819181A28160
:10129000B38189879A87AB87BC878F8198850E94A5
:1012A000AD1E9B01AC01C701B6010E94571D2985E7
:1012B0003A854B855C850E94B81F2B013C010E943A
:1012C0003B1E822E232E342E952E5B018C01AF8582
:1012D000B88918962C93189719963C9319971A96D3
:1012E0004C931A971B965C931B971C966C931C97B8
:1012F0001D96BC921D971E968C931E971F961C934D
:101300000E94AD1E9B01AC01C301B2010E94571D9A
:101310002B013C0120E030E040E05FE30E94B31F7E
:1013200018160CF0D0C0282D322D432D592DB501A3
:10133000C801A1E00E94391D39014A015B018C01FD
:101340000E94AD1E9B01AC0169857A858B859C85C9
:101350000E94C41D18160CF087C0EF85F8896086BE
:10136000718682869386A486B58606871787ED8563
:10137000FE85EF2B09F05DC0AF85B8891C911196F1
:101380006C90119712967C90129713968C901397ED
:1013900014969C9014971596AC9015971696BC9041
:1013A000169717960C91212F362D472D582D692D04
:1013B0007A2D8B2D902F0E94AD1E9B01AC01C70191
:1013C000B6010E94571D6B017C0120E030E040E037
:1013D0005FE30E94C41D87FF0AC020E030E040E0C8
:1013E0005FE3C701B6010E94B31F181614F5212F41
:1013F000217030E040E050E060E070E080E090E09C
:10140000A0E00E94451DA9F0212F362D472D582D13
:10141000692D7A2D8B2D902FA1E00E94391DEF852B
:10142000F889208331834283538364837583868361
:1014300097838F85988960960FB6F894DEBF0FBEAC
:10144000CDBFDF91CF911F910F91FF90EF90DF9073
:10145000CF90BF90AF909F908F907F906F905F9054
:101460004F903F902F900895AF85B88918961C92A1
:10147000189719961C9219971A961C921A971B96F0
:101480001C921B971C961C921C971D961C921D97D4
:101490001E961C921E971F961C9229813A814B81A1
:1014A0005C816D817E818F819885A1E00E94391DCC
:1014B000EF85F88920833183428353836483758366
:1014C0008683978354CF20E030E040E05FE3C301A0
:1014D000B2010E94C41D81114ACF282D322D432D07
:1014E000592DB501C801A0E00E94451D61F0217091
:1014F00030E040E050E060E070E080E090E00E948A
:10150000451D09F434CF282D322D432D592DB50119
:10151000C801A1E00E94391DAF85B88918962C93A7
:10152000189719963C9319971A964C931A971B96ED
:101530005C931B971C966C931C971D967C931D9730
:101540001E968C931E971F969C9311CF2F923F92BD
:101550004F925F926F927F928F929F92AF92BF92C3
:10156000CF92DF92EF92FF920F931F93CF93DF936F
:10157000CDB7DEB7E6970FB6F894DEBF0FBECDBF8E
:101580009CA78BA76DA77EA758AB4FA70A8B1B8B79
:101590002C8B3D8BFF8EEE8EDAAAC9AAB9A6A8A61F
:1015A0008BAA9CAA2C962FAD2C972DAB2D963FADD8
:1015B0002D973EAB8A899B89AC89BD898827B7FD69
:1015C00083959927AA27BB278E8B9F8BA88FB98FCE
:1015D0000E891F890115110549F02A893B894C891B
:1015E0005D8950582A8B3B8B4C8B5D8B20E030E023
:1015F000A9016A897B898C899D890E94C41D312C2F
:10160000212C882309F40FC18A899B89AC89BD8963
:10161000E7E1B695A79597958795EA95D1F799272C
:101620008F579109BC01990F880B990B0E94B51E29
:101630002BE930E24AE95EE30E94B81F24E431E579
:1016400044E35EE30E94581D6B017C016A897B893B
:101650008C899D898F77992780689F6320E030E08F
:1016600040EC5FE30E94571D2BE33DE344E95EE35A
:101670000E94B81F9B01AC01C701B6010E94581D12
:101680000E94771E6A8F7B8F8C8F9D8F2A8C3B8C5C
:10169000B101032C000C880B990B0E94B51E6B0145
:1016A0007C0128E73AE944E550E40E94B81F20E0B5
:1016B00030E040E05FE30E94581D0E94771E4B011E
:1016C0002EE83DE543E150E4C701B6010E94B81F92
:1016D0006B017C01092C000CAA08BB08C501B401F0
:1016E0000E94B51E28E132E741E35FE30E94B81F84
:1016F0009B01AC01C701B6010E94571D2B013C01A3
:10170000AC019B010E94B81F6B017C01A3019201F7
:10171000C301B2010E94581D68A379A38AA39BA3A9
:1017200020E030E040E651E4C701B6010E94C91D47
:1017300020E030E040E251E40E94581D9B01AC01E2
:10174000C701B6010E94C91D20E030E040EC50E422
:101750000E94581D9B01AC01C701B6010E94C91D22
:101760006B017C01A301920160E070E080E090E4F5
:101770000E94571D9B01AC01C701B6010E94581D74
:101780009B01AC0168A179A18AA19BA10E94C91DFE
:1017900020E030E040E85FE30E94581D3FE7830E01
:1017A000911CA11CB11CA5019401F7E1220F331F6C
:1017B000441F551FFA95D1F70E94B81F2B013C0119
:1017C000AC019B016A897B898C899D890E94C41D1B
:1017D00087FF0DC041E0241A310820E030E040E2EC
:1017E00051E4C301B2010E94C91D2B013C01C1019A
:1017F000419651E05AA78332910508F01AA68397C3
:1018000090F4C10137FE04C08827992782199309F3
:10181000880F991F880F991FFC01E55DFE4F4080DE
:1018200051806280738088A599A593FF8DC1AE8D8C
:10183000BF8D9D01AB2B11F421E030E08E8D9F8D8B
:101840000197BCEF2B16BFEF3B060CF467C02216C6
:1018500033060CF063C082199309AA24A3949F8FC6
:101860008E8F97FF02C01F8E1E8EE8A5F9A5F4602B
:10187000F9A7E8A737FE1AA6A110C1C121143104A7
:1018800009F475C18E898170898BFAA5FF2309F44B
:1018900063C1A30192016A897B898C899D890E9419
:1018A000B81F1AA50E943B1E2E8B3A8F48A35CA33B
:1018B0006DA37EA3882E9FA30E94AD1E2AA5A3011F
:1018C000222371F192010E94C91D9B01AC016A891A
:1018D0007B898C899D890E94571D6B017C01EE8D4F
:1018E000FF8DEE0FFF1FEE0FFF1FE55DFE4F8081A6
:1018F0009181A281B3818A8B9B8BAC8BBD8B112391
:1019000099F0A3019201BC01CD010E94B81F9B0177
:10191000AC01C701B6010E94B81F3DC0A12C9FCFEA
:1019200092010E94B81FD1CFD301C20157E1B695F1
:10193000A795979587955A95D1F799279C012F5789
:10194000310937FF03C03195219531098A899B8977
:10195000AC89BD8947E1B695A795979587954A9536
:10196000D1F799278F57910997FF03C091958195DA
:101970009109821793070CF07DC02A893B894C8915
:101980005D89C301B2010E94C91D9B01AC01C70161
:10199000B6010E94C91D2B013C01AE8DBF8DAB2B42
:1019A00009F071C011E020E030E040E05FE30E9408
:1019B000B31F87FD10E0212F30E040E050E060E0F1
:1019C00070E080E090E0AE88BA8CC8A0DCA0EDA00A
:1019D000FEA0082D1FA10E94301D2E8B3A8F48A318
:1019E0005CA36DA37EA3882E9FA320E030E040E09F
:1019F0005FE3C301B2010E94C41D811103C0BE890F
:101A0000BE7FBE8B10E0B12CC12C912CD12CE12CCF
:101A1000F12C00E02E893A8D48A15CA16DA17EA138
:101A2000882D9FA1A9E00E94451DA9F0A4F03FEFD9
:101A3000231A330A10E0B12CC12C912CD12CE12CAB
:101A4000F12C00E041E04E8B1A8E18A21CA21DA2C0
:101A50001EA2812C1FA2C1018D599F4F512C25E040
:101A6000622E712C873C910508F027C184E0682E16
:101A7000712C23C1A30192016A897B898C899D897C
:101A80000E94C91D44CF0E943B1E59016A017B017F
:101A9000082F992E0E94AD1E9B01AC01C301B2011B
:101AA0000E94571D2B013C0111E020E030E040E096
:101AB0005FE30E94B31F87FD10E0212F30E040E07C
:101AC00050E060E070E080E090E0192D0E94301D51
:101AD000122FB32EC42E952ED62EE72EF82E092FB8
:101AE00020E030E040E05FE3C301B2010E94C41D8A
:101AF000811101C01E7F212F3B2D4C2D592D6D2DA5
:101B00007E2D8F2D902F0E94AD1E9B01AC016A8906
:101B10007B898C899D890E94C41D18160CF47ACF8C
:101B20002E893A8D48A15CA16DA17EA1882D9FA12F
:101B3000A1E00E94391D2E8B3A8F48A35CA36DA3B0
:101B40007EA3882E9FA35ECF37FC98CE211431044C
:101B500071F08E898170898BA30192016A897B89DA
:101B60008C899D890E94C91D10E01AA69BCEA12CCC
:101B7000012B09F046C02E8D3F8D4A895B896C8907
:101B80007D89CE0101960E94E508F981FE8B2A81AC
:101B90002A8F3B8138A34C814CA35D815DA38E814C
:101BA0008EA38F8098859FA31985BA84CB849C844B
:101BB000DD84EE84FF8408892DCF2E8D3F8D4A89E8
:101BC0005B896C897D89CE0101960E94E508A98117
:101BD000AE8BBA81BA8FEB81E8A3FC81FCA32D8187
:101BE0002DA33E813EA38F8048854FA31985BA84DB
:101BF000CB849C84DD84EE84FF84088927C0012B7C
:101C0000E1F24A895B896C897D8970582E8D3F8D00
:101C1000CE0101960E94E508E981EE8BFA81FA8FE8
:101C20002B8128A33C813CA34D814DA35E815EA303
:101C30008F8088858FA31985BA84CB849C84DD84AA
:101C4000EE84FF840889AA2009F4E4CE68A479A46C
:101C5000662498E07922A8A5B9A555245394B3FF2A
:101C60002CC0BFEF2B163B0624F13101EFEF6E1AAB
:101C70007E0A2E893A8D48A15CA16DA17EA1882D96
:101C80009FA10E94AD1EF301EE0FFF1FEE0FFF1F7D
:101C9000E55DFE4F20813181428153810E94C41D48
:101CA000811107C02E8D3F8D215031093F8F2E8F1E
:101CB000130155245394712C612C88A599A5827029
:101CC00099279B8B8A8B98A591FF03C0611471049F
:101CD00041F4A9A9BAA9CD01861997096A167B060C
:101CE00010F090E080E0BE89B983EA8DEA83F8A124
:101CF000FB832CA12C833DA13D834EA14E838F827B
:101D00005FA158871987BA86CB869C86DD86EE86CA
:101D1000FF86088BAEA9AF93BDA9BF93ECA9EF9343
:101D2000FBA9FF9329A52F9338A53F939F938F93EA
:101D30004F8D4F935E8D5F9388A98F939FA59F933F
:101D4000AEA5AF93BDA5BF93ECA5EF93FBA5FF9305
:101D500089809A80AB80BC80CD80DE80EF80F88463
:101D600009851A852B853C854D855E856F8578892B
:101D700089890E94EB020FB6F894DEBF0FBECDBF7B
:101D8000511067C02C013FEF431A530A48A5E5E400
:101D900045FFE5E62FEF3FEFAC016DA57EA58E2F49
:101DA000EBA5FCA50995A32CAA1CAA24AA1C6101D9
:101DB000E32CEE0CEE08FE2C0E2D1E2DFE2DEE2D2E
:101DC00091014E2D5E2D6E2D7E2D8E2D9E2DA0E02F
:101DD0000E94451D3CF40E94031D69017A018B019C
:101DE000F82FE92F1F9285E08F9321E0621A710886
:101DF0007F926F921F921F929AE0892E2F2F3E2F73
:101E0000A2016DA57EA58BA59CA50E943C010F900B
:101E10000F900F900F900F900F904A895B89452B80
:101E2000C1F09C01AFA5B8A92A1B3B0BE9A9FAA9EF
:101E30002E173F0770F48C010F5F1F4F2FEF3FEFFE
:101E4000AC016DA57EA580E2EBA5FCA50995C801B6
:101E5000E8CFE6960FB6F894DEBF0FBECDBFDF9198
:101E6000CF911F910F91FF90EF90DF90CF90BF9097
:101E7000AF909F908F907F906F905F904F903F902A
:101E80002F9008952F923F924F925F926F927F9280
:101E90008F929F92AF92BF92CF92DF92EF92FF927A
:101EA0000F931F93CF93DF93CDB7DEB7E7970FB6AE
:101EB000F894DEBF0FBECDBF1C016AAB7BAB4CAB51
:101EC0005DAB28013901CEAADFAA6501B82CA901B2
:101ED0009801C301B8010E94C41D882331F1EEA806
:101EE000FFA803E010E02EE831E04CA95DA96AA943
:101EF0007BA9C1010E94B200E7960FB6F894DEBF3D
:101F00000FBECDBFDF91CF911F910F91FF90EF904A
:101F1000DF90CF90BF90AF909F908F907F906F9009
:101F20005F904F903F902F9008952FEF3FEF4FE736
:101F30005FEFC301B8010E94C41D87FF07C0EEA870
:101F4000FFA804E010E022E931E0CFCF2FEF3FEF10
:101F50004FE75FE7C301B8010E94B31F18166CF486
:101F600004E010E025E831E0C2FC04C003E010E02A
:101F70002AE831E0EEA8FFA8B8CF9E012F5F3F4FBF
:101F80004901B11025C028E23BE64EE65EE4C301FC
:101F9000B8010E94B31F181654F028E23BE64EE643
:101FA0005EECC301B8010E94C41D87FF11C01F92DF
:101FB0001F925601CEA8DFA8930182014CA95DA90A
:101FC0006AA97BA9C1010E94A60A0F900F9094CF25
:101FD000D2FC03C086E0E82EF12CF40110E000E012
:101FE00080E332E1E316F10448F00F5F1F4F819365
:101FF00091E0E91AF1080032110599F7BB2019F0B8
:102000001F930F93D6CF9701B301A201CE01819602
:102010000E94E5081F930F939F928F92DF92CF92B9
:102020002FA92F933EA93F93FF92EF928DA98F93F3
:102030009CA99F932BA92F933AA93F933F922F924C
:1020400089A09AA0ABA0BCA0CDA0DEA0EFA0F8A470
:1020500009A51AA52BA53CA54DA55EA56FA578A938
:1020600089A90E94EB020FB6F894DEBF0FBECDBF68
:1020700043CF882329F0682F8AEF91E00C94A207C0
:1020800008958EBD00000DB407FEFDCF8EB50895F6
:102090004F925F926F927F928F929F92AF92BF9278
:1020A000CF92DF92EF92FF92CF93DF93C5E1D1E021
:1020B0006A85062E000C770B880B990B0E94B51EC3
:1020C00026E636E646E65FE30E94B81F4B015C0158
:1020D000AC019B0160E070E084EB92E40E94571D2C
:1020E0000E947E1E6B01F12CE12C20E030E044EBDD
:1020F00052E4C501B4010E94581D0E947E1E9B013E
:1021000050E040E02C193D094E095F09AA81BB81CE
:102110000E94F71B88248A9423E0922EA12CB12CD4
:10212000A50194010E94CD1BCA01B9016C0D7D1D52
:102130008E1D9F1D8DEB92E00E940F086985062E73
:10214000000C770B880B990B0E94B51E26E636E62D
:1021500046E65FE30E94B81F2B013C01AC019B01E6
:1021600060E070E084EB92E40E94571D0E947E1EA6
:102170006B01F12CE12C20E030E044EB52E4C30190
:10218000B2010E94581D0E947E1E9B0150E040E05B
:102190002C193D094E095F09AC81BD810E94F71BD6
:1021A000A50194010E94CD1BCA01B9016C0D7D1DD2
:1021B0008E1D9F1D80EC92E0DF91CF91FF90EF90FC
:1021C000DF90CF90BF90AF909F908F907F906F9057
:1021D0005F904F900C940F088091280161E081116D
:1021E00001C060E08FE00E9468068091290161E0F3
:1021F000811101C060E080E10E94680680912701A2
:10220000882321F08CED90E00E94940480912601B7
:10221000882331F070E060E080EC92E00C940F08CD
:1022200008952FB7F8948091E1019091E201A09177
:10223000E301B091E4012FBF4091D6015091D70145
:102240006091D8017091D901841B950BA60BB70B37
:10225000893B9B40A105B10518F084E080931D01E6
:1022600008950F931F930091C9021091CA02209103
:10227000CB023091CC0240E059E06DE370E080E0A9
:10228000041715072607370740F476956795579585
:1022900047958F5F8630A1F787E0982F906A9695D3
:1022A000809581709CBD8DBD80E01F910F910C9435
:1022B0009606CF93C82F0E9431118C2F80620E9406
:1022C00041108093CD02CF910C94A806CF93C82FD4
:1022D0000E9431118C2F0E9441108093CD028FEF0C
:1022E0000E944110C82F0E94A8068C2FCF910895FC
:1022F000FF920F931F93CF93DF93C82FF62E072FD4
:10230000142F0E9431118C2F80620E944110809303
:10231000CD02CF2DD02F115020F089910E94411075
:10232000FACFDF91CF911F910F91FF900C94A806E7
:102330000E94311180E50E9441108093CD0283E715
:102340000E9441100C94A806CF93DF93D82FC62F7C
:102350000E9431118D2F80620E9441108093CD0226
:102360008C2F0E944110DF91CF910C94A8066091B0
:10237000D40261FD0AC062606093D40280E00E94D2
:10238000A4118CE097E20197F1F708952F923F9204
:102390004F925F926F927F928F929F92AF92BF9275
:1023A000CF92DF92EF92FF920F931F93CF93DF9321
:1023B000CDB7DEB72F970FB6F894DEBF0FBECDBFF7
:1023C000FE01B496619071908F01312C212CD301C4
:1023D0008C91882309F4F1C3BFEF6B1A7B0A71015A
:1023E000EFEFEE1AFE0A853209F0C6C0B12CA12C1F
:1023F00007C08D3271F1803361F46894A0F83F0119
:10240000F30181918B3241F1A4F7803241F18332A3
:1024100049F190ED980F9A3040F51B821A82F30132
:10242000819190ED980F9A3098F54AE02A813B818E
:10243000429F7001439FF00C112490E3E91AF108C8
:10244000D701A80FB11D87FDBA95BB83AA833F01B1
:10245000E6CF6894A1F8D3CF6894A2F8D0CF68945F
:10246000A3F8CDCF6894A4F8CACF8A32D9F5C801B1
:102470000296D801ED90FC90F7FE31C06894A1F867
:10248000222733272E193F093B832A838C013F01E2
:10249000D3018C918E3209F048C0C3010196689433
:1024A000B2F811962C9130ED320F3A30F0F4512CF5
:1024B000412CFC01219130ED320F3A3098F5BAE011
:1024C000B49D7001B59DF00C112430E3E31AF108BE
:1024D0002701420E511C27FD5A94CF01EACFFB82FF
:1024E000EA82D4CF1B821A82D3CF2A32E9F4C80100
:1024F0000296D8014D905C9057FE02C0512C412CA1
:10250000B2E06B0E711C8C0193012F5F3F4FF30102
:1025100080818C36A1F064F48836D9F18A3661F076
:10252000930112C03C01F0CF3C01512C412CECCF67
:10253000843711F08A37A1F76894B1F805C081811A
:102540008C3609F16894B0F8D9018D913D0185363A
:1025500009F4EAC10CF0A4C0873409F4E5C114F50C
:10256000853409F4E1C10CF0C1C1853209F4FBC224
:102570007101BFEFEB1AFB0A2FEF3FEFA101BE0184
:102580006F5F7F4FFBC2B3E0BB2A93012E5F3F4FCB
:10259000DBCF8181883619F06894A7F8D5CFF0ECAD
:1025A000AF2AF3CF823609F434C33CF46894A5F81B
:1025B0008835F1F6F0E18F2E0DC0833609F4CBC1DA
:1025C0008436B1F6E894A4F8AAE08A2E893621F080
:1025D000843611F0B3EFAB22B2FE02C0E894A0F84B
:1025E000950122273270893619F0843609F023C10B
:1025F000232B09F49CC0F8013896F987E887D801A5
:10260000CC901196DC9011971296EC90129713963D
:10261000FC90139714969C9014971596AC91F80122
:10262000F681FC83F801F781FA879601A701692DED
:102630007A2F8C819F2F0FE30E94151DB22F092D39
:102640001A2FFC81EA859601A701B8018F2F9E2FD2
:10265000A0E00E94451D3CF40E94031D69017A011F
:102660008B01F82FE92FBF92AF922B812F933A81E4
:102670003F935F924F92AB2E2F2F3E2FA101BE01B1
:102680006F5F7F4F89E390E10E943C011C010F9036
:102690000F900F900F900F900F900885198597CE8F
:1026A0008F3609F4B3C29CF4873609F43DC10CF4AB
:1026B0001DC1893609F486CF8E3609F059CFD8016D
:1026C000ED91FD918D01A6FE5DC2208280CE833703
:1026D00009F490C12CF5803709F04ACF6501689460
:1026E000C0F8D4F8F8013296FB83EA83D8010D9143
:1026F0001C910115110509F015C246E0E42EF12CDC
:1027000005E010E02EE931E0A101BE016F5F7F4FCF
:1027100089E390E10E94B2001C010A811B8157CE1F
:10272000853709F44FCF883709F444CF21CFB0FE65
:1027300048C0C801049699878887D801CD90DD905C
:10274000ED90FC90D701C6018827B7FD83959927A6
:10275000AA27BB278C879D87AE87BF87D701C60175
:10276000BB0F880B982FDC018C839D83AE83BF83C6
:10277000BC2D9D2CEA86FB860C81102FF02FE02FBC
:102780009601A7016F2F702F802F9F2FA0E00E942E
:10279000451D4CF40E94031DB22F932E4A875B8780
:1027A0008B01F82FE92FBF92AF929B819F93AA8153
:1027B000AF935F924F92AC84CB2ED92CEA84FB84EA
:1027C0005BCFF8013296F987E887D801A6FE30C0C2
:1027D000EC910E2E000CFF0BBF2FBB1FBB27BB1FA6
:1027E000BC836F01EF2EEE0CEE08FE2C0E2D1E2D7D
:1027F0009E2CBE2D9F014E2D5E2D6E2D7E2D8E2D7D
:102800009E2DA0E00E94451D3CF40E94031D69011D
:102810007A018B01982EB92FBF92AF92EB81EF9383
:10282000FA81FF935F924F92AC80292D3B2F26CFE8
:10283000ED91FC91D1CF232B39F19801285F3F4FC7
:1028400039872887D801CC901196DC901197129681
:10285000EC9012971396FC90139714969C911497F2
:1028600015968C91159716962C91169717963C9164
:10287000BF92AF92BB81BF93EA81EF935F924F9279
:10288000A12C092F182FFACE9801B0FE19C02C5F89
:102890003F4F39872887D8010D911D912D913C918B
:1028A000BF92AF92BB81BF93EA81EF935F924F9249
:1028B000A12C6801790100E010E020E030E0DECEDC
:1028C0002E5F3F4F39872887D8010D911C91A6FCB8
:1028D0001127BF92AF92BB81BF93EA81EF935F92C2
:1028E0004F92A12C6801E12CF12CE5CF863411F434
:1028F0006894A5F898012C5F3F4F3D832C83D80145
:102900000D911D912D913C91812CCA80DB8072012B
:10291000A101BE016F5F7F4F89E390E10E94420FEA
:102920001C010C811D8153CD982F9F7D973419F484
:102930006894B3F88D7F853411F46894A5F8F80194
:102940003496FD83EC83D8010D911D912D913C911E
:1029500088248394DACF4501B2E08B229924A10127
:10296000CC24C394D12CA1FC1AC0F12CE12CA101E0
:102970004E0D5F1D6701E2E0CE0ED11CFFEFEF1A96
:10298000FF0A2A813B81E216F30648F42FEF3FEF5E
:10299000BE016F5F7F4F80E20E943910E8CF1A01BD
:1029A0003FEF231A330A780182E0E80EF11C2FEF83
:1029B0003FEFBE016F5F7F4FD8018C910E943910AD
:1029C0008928B1F0EA81FB81CE16DF0688F4810107
:1029D0000F5F1F4F2FEF3FEFA101BE016F5F7F4FD2
:1029E00080E20E943910FFEFCF1ADF0A1801EACF08
:1029F0008701EDCC98012E5F3F4F39872887D8019A
:102A00000D911C910115110589F46501EA80FB8087
:102A100006E010E027E931E0A101BE016F5F7F4FC2
:102A200089E390E10E94B2001C0137CE920141146B
:102A3000510411F42FEF3FEFF80190E080E0AF0177
:102A40004F5F5F4F6081662331F08217930719F063
:102A50000196FA01F4CFE01BF10B950122273470A7
:102A60003D832C83B2FE04C04E165F0608F4F201CB
:102A7000450132E0832299247F01A101A1FC18C005
:102A80002E1A3F0AA1014E0F5F1F7F018FEFE81A38
:102A9000F80AAA81BB81EA17FB0750F42FEF3FEF3A
:102AA000BE016F5F7F4F80E20E943910F701EACFCD
:102AB0006A01C01AD10AA601400F511FF801819185
:102AC0008F01882391F02C813D81232B31F09201DD
:102AD00021503109452849F029012FEF3FEFBE0170
:102AE0006F5F7F4F0E943910E6CF1A01892809F4E1
:102AF000D4CDE41AF50AC701820D931DAA81BB81CA
:102B00008A179B0708F0C9CD81010F5F1F4F2FEF78
:102B10003FEFA101BE016F5F7F4F80E20E9439103D
:102B20001801E9CFDF92CF921F92B6E0BF935F9278
:102B30004F9230E1832EA12C6801E12CF12C00E0B2
:102B400010E020E030E0A101BE016F5F7F4F89E31C
:102B500090E10E943C011C010F900F900F900F908C
:102B60000F900F90DACD7101EFEFEE1AFE0A2FEF02
:102B70003FEFA101BE016F5F7F4F85E20E943910D8
:102B8000170125CCA7FE03C03182208220CCB0FEE5
:102B900008C0C101B0E0A0E080839183A283B38329
:102BA00016CCB1FEF1CF41012082918212821382B4
:102BB00014821582168217820ACCA101EFEF2E161D
:102BC0003E0611F44EEF5FEF2FEF3FEFBE016F5F58
:102BD0007F4F80E00E943910C1012F960FB6F89404
:102BE000DEBF0FBECDBFDF91CF911F910F91FF9040
:102BF000EF90DF90CF90BF90AF909F908F907F909D
:102C00006F905F904F903F902F90089528E0822E14
:102C1000E1CC92E0892EDECC0F931F93CF93DF930C
:102C20008FEF0E9459118091CD0290E09595879584
:102C30008770863008F0B8C061E086E00E946806C0
:102C40002FB7F8948091E1019091E201A091E30106
:102C5000B091E4012FBF8093D6019093D701A09348
:102C6000D801B093D9018091D902C0E0D5E181119A
:102C700007C0C091CE02DC2FC63108F0D5E1CD1BD4
:102C80000E94311181E60E9441108093CD0200E044
:102C900011E0D15038F08FEF0E944110F80181937C
:102CA0008F01F7CFC15020F08FEF0E944110FACF73
:102CB0000E94A80660E487E00E94A41180910001B0
:102CC00090910101019681309440A0F084EA91E056
:102CD0009F938F930E94C6110F900F9061E084E044
:102CE0000E94680660E086E0DF91CF911F910F910E
:102CF0000C94680680910401909105010196813041
:102D0000944018F08BEA91E0E3CF8091020190911A
:102D1000030101968130944018F082EB91E0D8CF06
:102D2000809106019091070101968130944018F03E
:102D300089EB91E0CDCF80910801843018F080ECD0
:102D400091E0C6CF809109018F5F863618F087EC3D
:102D500091E0BECF80910A018F5F863618F08EEC2D
:102D600091E0B6CF80911D018430A1F48CED90E00C
:102D70000E94940464EF71E080E090E00E94D0062D
:102D800080E793E00E94940468EE73E080E090E0B6
:102D90000E94D00685E1E0E0F1E0A5E1B1E001901C
:102DA0000D928A95E1F79ECFDF91CF911F910F9100
:102DB00008951F920F920FB60F9211242F933F93F5
:102DC0008F939F93AF93BF938091E1019091E20124
:102DD000A091E301B091E4013091E00126E0230FDE
:102DE0002D3758F50296A11DB11D2093E001809367
:102DF000E1019093E201A093E301B093E40180919B
:102E0000E5019091E601A091E701B091E8010196FA
:102E1000A11DB11D8093E5019093E601A093E70108
:102E2000B093E801BF91AF919F918F913F912F9106
:102E30000F900FBE0F901F90189529E8230F03964F
:102E4000A11DB11DD2CF1F920F920FB60F92112468
:102E50002F933F934F935F936F937F938F939F93A2
:102E6000AF93BF93EF93FF938091EE019091EF01A9
:102E7000A091F001B091F101892B8A2B8B2BD1F11C
:102E80009091E901E091EA01F091EB0180818927BD
:102E900080838091EE019091EF01A091F001B091BB
:102EA000F101181619061A061B069CF48091EE0112
:102EB0009091EF01A091F001B091F1010197A1096A
:102EC000B1098093EE019093EF01A093F001B093CC
:102ED000F101FF91EF91BF91AF919F918F917F9100
:102EE0006F915F914F913F912F910F900FBE0F9077
:102EF0001F90189580912A01E2E9F0E0E4919FEF9C
:102F000090932A01E13051F030F0E23069F060E056
:102F10000E946806DECF10926E00F9CF90916F008C
:102F20009D7F90936F00F3CF909170009D7F909361
:102F3000700091E09093B0009091B100987F946000
:102F40009093B1001092B300E2CF1F920F920FB690
:102F50000F9211242F933F934F935F936F937F931F
:102F60008F939F93AF93BF93EF93FF938AEF91E07B
:102F70000E948007FF91EF91BF91AF919F918F9138
:102F80007F916F915F914F913F912F910F900FBE65
:102F90000F901F9018951F920F920FB60F92112449
:102FA0002F938F939F93EF93FF93E0910A02F091F9
:102FB0000B028081E0911002F091110282FD1BC092
:102FC0009081809113028F5F8F732091140282177A
:102FD00041F0E0911302F0E0E650FE4F958F8093B0
:102FE0001302FF91EF919F918F912F910F900FBE40
:102FF0000F901F9018958081F4CF1F920F920FB6FB
:103000000F9211242F933F934F935F936F937F936E
:103010008F939F93AF93BF93CF93DF93EF93FF93E0
:103020008091DA01C091BB02D0E087FF24C01092EA
:103030008500109284008091DA018F5F8093DA011D
:103040008091DA01082E000C990B8C179D0724F44F
:103050008091DA018C30C4F18091840090918500D8
:10306000049680329E4408F47AC080918400909146
:103070008500049676C08091DA01082E000C990B29
:103080008C179D07C4F6E091DA018E2FEE0F990B95
:10309000FC01EE0FFF1FE80FF91FE956FD4F80817D
:1030A00086FFC9CFE091DA018E2FEE0F990BFC015C
:1030B000EE0FFF1FE80FF91FE956FD4F808160E01A
:1030C0008F730E946806B7CF2091840030918500ED
:1030D000E091DA018E2FEE0F990BFC01EE0FFF1F2E
:1030E000E80FF91FE956FD4F81819281820F931FEE
:1030F0009093890080938800E091DA018E2FEE0F83
:10310000990BFC01EE0FFF1FE80FF91FE956FD4F69
:10311000808186FF11C0E091DA018E2FEE0F990BAE
:10312000FC01EE0FFF1FE80FF91FE956FD4F8081EC
:1031300061E08F730E946806FF91EF91DF91CF915C
:10314000BF91AF919F918F917F916F915F914F91BF
:103150003F912F910F900FBE0F901F90189580E216
:103160009EE490938900809388008FEF8093DA012A
:10317000E3CF1092FD011092FC0188EE93E0A0E0F5
:10318000B0E08093FE019093FF01A0930002B09302
:10319000010287E791E09093FB018093FA0185ECAF
:1031A00090E0909307028093060284EC90E0909365
:1031B00009028093080280EC90E090930B028093C8
:1031C0000A0281EC90E090930D0280930C0282EC55
:1031D00090E090930F0280930E0286EC90E0909323
:1031E0001102809310021092130210921402109296
:1031F00015021092160287E090E09093C602809329
:10320000C50288E090E09093C8028093C70280E8EE
:1032100096E9A8E9B0E08093C9029093CA02A0930E
:10322000CB02B093CC0280E28093CE021092D50202
:103230001092D60285E08093D80281E08093D90273
:1032400085E090E0A0E0B0E08093DF029093E002A0
:10325000A093E102B093E2028CEB92E09093C4025F
:103260008093C3021092CF028091BB028C3048F54C
:1032700091E0980F9093BB028093C00290E0FC0114
:10328000EE0FFF1FE80FF91FE956FD4F8CED95E09B
:10329000928381838091BB028C30B8F491E0980FC7
:1032A0009093BB028093BD0290E0FC01EE0FFF1FE4
:1032B000E80FF91FE956FD4F8CED95E0928381836D
:1032C00008958FEF8093C002E5CF8FEF8093BD020A
:1032D0000895CF93DF93CDB7DEB728970FB6F89454
:1032E000DEBF0FBECDBF789484B5826084BD84B547
:1032F000816084BD85B5826085BD85B5816085BDF1
:1033000080916E00816080936E00109281008091A8
:103310008100826080938100809181008160809330
:103320008100809180008160809380008091B10055
:1033300084608093B1008091B00081608093B00080
:1033400080917A00846080937A0080917A00826014
:1033500080937A0080917A008E7F80937A008091AA
:103360007A00806880937A001092C1001FB7F894A9
:103370008091DB01811124C0E1EBF0E08491E5EC68
:10338000F0E09491E82FF0E0EE0FFF1FE356FF4FBF
:10339000A591B491EC91E92321F461E08AE00E94C7
:1033A00068068AE00E9493008CB580618CBD8CB564
:1033B00080648CBD8DE00E9493008BE00E9493009E
:1033C0008091DB018F5F8093DB011FBF8091C5027D
:1033D0009091C6028F3F980709F48FC02091C702D1
:1033E0003091C8022F3F320709F487C08217930734
:1033F00031F00E9493008091C7020E949300809157
:10340000C5029091C6022091C7023091C80282176E
:10341000930719F060E00E94680681E00E9496061A
:1034200065E070E080E090E00E94D0066FE584E007
:103430000E94A41185E590E0A0E0B0E08093DB025B
:103440009093DC02A093DD02B093DE0267E086E099
:103450000E94A4118DE10E946611182F0E949811FC
:103460008DE10E94661191E0181390E09093D502CF
:10347000882341F0181302C00E94981160E08DE18A
:103480000E94A4111092D70260E08CE10E94A41166
:103490001092D9026FE381E00E94A41163E082E000
:1034A0000E94A41180E28093CE0211E16091CE02CD
:1034B000812F0E94A4111F5F1731C1F763E083E0E1
:1034C0000E94A41185E08093D8026CE40E94A411AC
:1034D00060E787E00E94A41182EE0E94591181EEFC
:1034E0000E9459116CE080E00E94A41180E00E94CB
:1034F00066118093D4020E94B71187EF898385EA11
:103500008A838CE78B838FE08C8384EA8D831E8291
:103510001F8218864091D80250E0BE016F5F7F4F36
:103520008FEC92E00E94252081E08093D602E8E6AD
:10353000F0E084914091D802BE016F5F7F4F0E94FE
:10354000781182E00E9466110EE610E0F801949175
:1035500061E070E001C0660F9A95EAF7682B82E09F
:103560000E94A41186E00E946611887F682F616026
:1035700086E00E94A4110E94B7116091D40261609C
:103580006093D40280E00E94A41160E787E00E946B
:10359000A4118091C5029091C6022091C70230917A
:1035A000C8028217930719F061E00E9468068091B3
:1035B000D602882309F46AC04091D8026FEC72E009
:1035C0008AE00E947811E0910A02F0910B0282E0F9
:1035D0008083E0910602F09107021082E0910802D8
:1035E000F091090287E6808310921202E0910E02A8
:1035F000F0910F0286E08083E0910C02F0910D02C1
:10360000808180618083E0910C02F0910D028081C5
:1036100088608083E0910C02F0910D0280818068C7
:103620008083E0910C02F0910D0280818F7D808378
:1036300086E00E94930084E00E9493008FE00E9445
:10364000930080E10E94930063E070E080EC92E0E0
:103650000E94890865E070E08DEB92E00E94890885
:1036600000E010E080911D01833024F581300CF0E2
:1036700086C0882309F476C00115110599F30E94CC
:103680006C07882379F30E940000ECCF82E00E944F
:103690006611F801049121E030E001C0220F0A9583
:1036A000EAF72095622F682382E00E94A41110920D
:1036B000D60289CF833009F46BC08430E9F66AE51D
:1036C00070E080EC92E00E940F086AE570E08DEBFC
:1036D00092E00E940F080E940C162FB7F894809178
:1036E000E1019091E201A091E301B091E4012FBFCB
:1036F0004091DC015091DD016091DE017091DF01AC
:10370000841B950BA60BB70B8D3D9540A105B1050C
:1037100008F4B2CF2FB7F8948091E1019091E201C3
:10372000A091E301B091E4012FBF8093DC0190935D
:10373000DD01A093DE01B093DF018FE00E943F0620
:1037400061E0892B09F060E08FE00E94680680E16B
:103750000E943F0661E0892B09F060E080E10E9451
:1037600068068ACF0E940C160E9411110E94EC106C
:103770006AE570E080EC92E00E940F087DCF0E9425
:103780000C160E9411110E94EC100E94481074CF78
:103790000E940C160E9411116FCF052E97FB1EF48C
:1037A00000940E94E41B57FD07D00E94361C07FCC2
:1037B00003D04EF40C94E41B509540953095219520
:1037C0003F4F4F4F5F4F089590958095709561954D
:1037D0007F4F8F4F9F4F08950E94581CA59F900DBB
:1037E000B49F900DA49F800D911D11240895B7FFE3
:1037F0000C94EC1B0E94EC1B821B930B08952F92E0
:103800003F924F925F926F927F928F929F92AF9270
:10381000BF92CF92DF92EF92FF920F931F93CF93BD
:10382000DF93CDB7DEB7CA1BDB0B0FB6F894DEBF54
:103830000FBECDBF09942A88398848885F846E847A
:103840007D848C849B84AA84B984C884DF80EE80C4
:10385000FD800C811B81AA81B981CE0FD11D0FB6CD
:10386000F894DEBF0FBECDBFED010895A1E21A2E80
:10387000AA1BBB1BFD010DC0AA1FBB1FEE1FFF1F14
:10388000A217B307E407F50720F0A21BB30BE40B64
:10389000F50B661F771F881F991F1A9469F76095AB
:1038A0007095809590959B01AC01BD01CF01089565
:1038B000A29FB001B39FC001A39F700D811D112471
:1038C000911DB29F700D811D1124911D0895991BAA
:1038D00079E004C0991F961708F0961B881F7A9507
:1038E000C9F780950895689401C0E894F92FF12BE9
:1038F00012F00C94A71CA0E0B0E0E1E8FCE10C940D
:10390000051C092E059422F40E94031D112392F434
:10391000F0E80F26FFEFE094F09400951095B09436
:10392000C094D094A194BF0ACF0ADF0AEF0AFF0A1D
:103930000F0B1F0B0E94B21C07FC0E94031DCDB78A
:10394000DEB7ECE00C94211C689401C0E8948F92DF
:103950009F92CF93DF930E94B21CDF91CF919F90F3
:103960008F90089588249924F401E401B0E49F9392
:10397000AA279A158B049C04ED05FE05CF05D007F8
:10398000A10798F4AD2FDC2FCF2FFE2FE92D982C17
:10399000892E982F872F762F652F542F432F322F64
:1039A0002227B85031F7BF9127C01B2EBF91BB27EC
:1039B000220F331F441F551F661F771F881F991F33
:1039C000881C991CEE1FFF1FCC1FDD1FAA1FBB1FE9
:1039D0008A149B04EC05FD05CE05DF05A007B107A1
:1039E00048F08A189B08EC09FD09CE09DF09A00BF5
:1039F000B10B21601A94E1F62EF49401AF01BE01DF
:103A0000CD01000C08956095709580959095309546
:103A10004095509521953F4F4F4F5F4F6F4F7F4FD0
:103A20008F4F9F4F089597FD1094002E083098F007
:103A30000850232F342F452F562F672F782F892F8B
:103A4000912DF4CF15949795879577956795579510
:103A50004795379527950A95AAF71124002D0895C3
:103A60002A0D3B1D4C1D5D1D6E1D7F1D801F911F6E
:103A700008950024A7FD00942A0F301D401D501DFD
:103A8000601D701D801D901D08950024A7FD0094E9
:103A90002A17300540055005600570058005900522
:103AA0000895EE0FFF1F0590F491E02D09945058F2
:103AB000BB27AA270E946F1D0C94791F0E946B1FC1
:103AC00038F00E94721F20F039F49F3F19F426F459
:103AD0000C94581F0EF4E095E7FB0C94521FE92F4D
:103AE0000E948A1F58F3BA17620773078407950765
:103AF00020F079F4A6F50C94AC1F0EF4E0950B2E93
:103B0000BA2FA02D0B01B90190010C01CA01A0012F
:103B10001124FF27591B99F0593F50F4503E68F18A
:103B20001A16F040A22F232F342F4427585FF3CFCB
:103B3000469537952795A795F0405395C9F77EF49C
:103B40001F16BA0B620B730B840BBAF09150A1F0E5
:103B5000FF0FBB1F661F771F881FC2F70EC0BA0F6B
:103B6000621F731F841F48F4879577956795B795F3
:103B7000F7959E3F08F0B0CF9395880F08F09927EE
:103B8000EE0F9795879508950E942E1F08F481E007
:103B900008950E94DD1D0C94791F0E94721F58F039
:103BA0000E946B1F40F029F45F3F29F00C94521FD4
:103BB00051110C94AD1F0C94581F0E948A1F68F37A
:103BC0009923B1F3552391F3951B550BBB27AA27D6
:103BD00062177307840738F09F5F5F4F220F331F10
:103BE000441FAA1FA9F335D00E2E3AF0E0E832D0D8
:103BF00091505040E695001CCAF72BD0FE2F29D0DB
:103C0000660F771F881FBB1F261737074807AB07AC
:103C1000B0E809F0BB0B802DBF01FF2793585F4F21
:103C20003AF09E3F510578F00C94521F0C94AD1F52
:103C30005F3FE4F3983ED4F3869577956795B79503
:103C4000F7959F5FC9F7880F911D9695879597F90E
:103C50000895E1E0660F771F881FBB1F6217730787
:103C60008407BA0720F0621B730B840BBA0BEE1F9C
:103C700088F7E0950895BEE304D008F490E808952D
:103C8000BFE322273327A9010E94921F60F19F57AB
:103C900048F1B91740F1BFE3B91B9927B8503AF47E
:103CA000660F771F881F991FB395D2F316C0B850BF
:103CB0004AF0232F342F452F562F672F782F882730
:103CC000B850BAF7B85F49F08695779567955795DC
:103CD000479537952795BA95B9F716F40E945B1F5B
:103CE00088940895889460E070E0CB0108950E9464
:103CF0007E1E6894B1110C94AD1F08950E94921F0E
:103D000088F09F5798F0B92F9927B751B0F0E1F09C
:103D1000660F771F881F991F1AF0BA95C9F714C04C
:103D2000B13091F00E94AC1FB1E008950C94AC1F2B
:103D3000672F782F8827B85F39F0B93FCCF3869585
:103D400077956795B395D9F73EF4909580957095E2
:103D500061957F4F8F4F9F4F089597FB16F40E94F8
:103D60005B1F0C94F11EE89409C097FB3EF49095FC
:103D70008095709561957F4F8F4F9F4F9923A9F044
:103D8000F92F96E9BB279395F695879577956795D3
:103D9000B795F111F8CFFAF4BB0F11F460FF1BC017
:103DA0006F5F7F4F8F4F9F4F16C0882311F096E9AA
:103DB00011C0772321F09EE8872F762F05C0662358
:103DC00071F096E8862F70E060E02AF09A95660F11
:103DD000771F881FDAF7880F9695879597F90895CA
:103DE000E894F92F96EBFF2381F0121613061406C0
:103DF000440B9395F6958795779567955795404031
:103E0000FF23B9F71BC099270895882351F49850D0
:103E1000D2F7872B762F652F542F432F322F20E098
:103E2000B1F3121613061406440B88233AF09A9540
:103E3000440F551F661F771F881FCAF755234AF482
:103E4000440F551F11F460FF04C06F5F7F4F8F4F09
:103E50009F4F880F9695879597F90895990F0008B9
:103E6000550FAA0BE0E8FEEF16161706E807F9074C
:103E7000C0F012161306E407F50798F0621B730BE7
:103E8000840B950B39F40A2661F0232B242B252B68
:103E900021F408950A2609F4A140A6958FEF811D0B
:103EA000811D089597F99F6780E870E060E00895AC
:103EB0009FEF80EC08959095809570956095509552
:103EC0004095309521953F4F4F4F5F4F6F4F7F4F3C
:103ED0008F4F9F4F089500240A9416161706180650
:103EE0000906089500240A941216130614060506FE
:103EF0000895092E0394000C11F4882352F0BB0F8F
:103F000040F4BF2B11F460FF04C06F5F7F4F8F4FF1
:103F10009F4F089557FD9058440F551F59F05F3F2C
:103F200071F04795880F97FB991F61F09F3F79F0DB
:103F300087950895121613061406551FF2CF46955D
:103F4000F1DF08C0161617061806991FF1CF8695DF
:103F50007105610508940895E894BB2766277727C3
:103F6000CB0197F908950E942E1F08F48FEF089552
:103F70000E94CB1F0C94791F0E946B1F38F00E9487
:103F8000721F20F0952311F00C94521F0C94581FAF
:103F900011240C94AD1F0E948A1F70F3959FC1F3EA
:103FA000950F50E0551F629FF001729FBB27F00DE7
:103FB000B11D639FAA27F00DB11DAA1F649F66273C
:103FC000B00DA11D661F829F2227B00DA11D621F8B
:103FD000739FB00DA11D621F839FA00D611D221F45
:103FE000749F3327A00D611D231F849F600D211D29
:103FF000822F762F6A2F11249F5750409AF0F1F0AC
:1040000088234AF0EE0FFF1FBB1F661F771F881F14
:1040100091505040A9F79E3F510580F00C94521FDB
:104020000C94AD1F5F3FE4F3983ED4F386957795EB
:104030006795B795F795E7959F5FC1F7FE2B880FBA
:10404000911D9695879597F90895FB01DC0102C0B3
:1040500001900D9241505040D8F70895F894FFCF49
:10406000FFFFFFFFFFFFFFFF04FFFF000000000056
:104070000000000000FFFFFFFFFFFFFFFF04FFFF46
:1040800000000000000000000000FF0000803F0072
:104090000020410000C84200007A4400401C460055
:1040A00050C347002474498096184B20BCBE4C284E
:1040B0006B6E4EF9021550B743BA51A5D46853E759
:1040C00084115521E6B556A95F6358CA1B0E5ABC28
:1040D000A2B15B00000000A20702072F07EF0760F4
:1040E000073E075207666E692B00666E69006E61B7
:1040F0006E00666E692D00296C6C756E2800296C47
:10410000696E280063617365310A0063617365320B
:104110000A0063617365330A0063617365340A00E2
:1041200063617365350A0063617365360A00636114
:064130007365370A000070
:00000001FF
